{
  "_format": "hh-sol-artifact-1",
  "contractName": "Token",
  "sourceName": "contracts/Token.sol",
  "abi": [
    {
      "inputs": [
        {
          "internalType": "string",
          "name": "_name",
          "type": "string"
        },
        {
          "internalType": "string",
          "name": "_symbol",
          "type": "string"
        },
        {
          "internalType": "uint8",
          "name": "_decimals",
          "type": "uint8"
        },
        {
          "internalType": "uint256",
          "name": "_initialSupply",
          "type": "uint256"
        }
      ],
      "stateMutability": "nonpayable",
      "type": "constructor"
    },
    {
      "anonymous": false,
      "inputs": [
        {
          "indexed": true,
          "internalType": "address",
          "name": "owner",
          "type": "address"
        },
        {
          "indexed": true,
          "internalType": "address",
          "name": "spender",
          "type": "address"
        },
        {
          "indexed": false,
          "internalType": "uint256",
          "name": "value",
          "type": "uint256"
        }
      ],
      "name": "Approval",
      "type": "event"
    },
    {
      "anonymous": false,
      "inputs": [
        {
          "indexed": true,
          "internalType": "address",
          "name": "from",
          "type": "address"
        },
        {
          "indexed": false,
          "internalType": "uint256",
          "name": "value",
          "type": "uint256"
        }
      ],
      "name": "Burn",
      "type": "event"
    },
    {
      "anonymous": false,
      "inputs": [
        {
          "indexed": true,
          "internalType": "address",
          "name": "to",
          "type": "address"
        },
        {
          "indexed": false,
          "internalType": "uint256",
          "name": "value",
          "type": "uint256"
        }
      ],
      "name": "Mint",
      "type": "event"
    },
    {
      "anonymous": false,
      "inputs": [
        {
          "indexed": true,
          "internalType": "address",
          "name": "from",
          "type": "address"
        },
        {
          "indexed": true,
          "internalType": "address",
          "name": "to",
          "type": "address"
        },
        {
          "indexed": false,
          "internalType": "uint256",
          "name": "value",
          "type": "uint256"
        }
      ],
      "name": "Transfer",
      "type": "event"
    },
    {
      "inputs": [
        {
          "internalType": "address",
          "name": "",
          "type": "address"
        },
        {
          "internalType": "address",
          "name": "",
          "type": "address"
        }
      ],
      "name": "allowance",
      "outputs": [
        {
          "internalType": "uint256",
          "name": "",
          "type": "uint256"
        }
      ],
      "stateMutability": "view",
      "type": "function"
    },
    {
      "inputs": [
        {
          "internalType": "address",
          "name": "_spender",
          "type": "address"
        },
        {
          "internalType": "uint256",
          "name": "_value",
          "type": "uint256"
        }
      ],
      "name": "approve",
      "outputs": [
        {
          "internalType": "bool",
          "name": "success",
          "type": "bool"
        }
      ],
      "stateMutability": "nonpayable",
      "type": "function"
    },
    {
      "inputs": [
        {
          "internalType": "address",
          "name": "",
          "type": "address"
        }
      ],
      "name": "balanceOf",
      "outputs": [
        {
          "internalType": "uint256",
          "name": "",
          "type": "uint256"
        }
      ],
      "stateMutability": "view",
      "type": "function"
    },
    {
      "inputs": [
        {
          "internalType": "address",
          "name": "_from",
          "type": "address"
        },
        {
          "internalType": "uint256",
          "name": "_amount",
          "type": "uint256"
        }
      ],
      "name": "burn",
      "outputs": [
        {
          "internalType": "bool",
          "name": "success",
          "type": "bool"
        }
      ],
      "stateMutability": "nonpayable",
      "type": "function"
    },
    {
      "inputs": [],
      "name": "decimals",
      "outputs": [
        {
          "internalType": "uint8",
          "name": "",
          "type": "uint8"
        }
      ],
      "stateMutability": "view",
      "type": "function"
    },
    {
      "inputs": [
        {
          "internalType": "address",
          "name": "_spender",
          "type": "address"
        },
        {
          "internalType": "uint256",
          "name": "_subtractedValue",
          "type": "uint256"
        }
      ],
      "name": "decreaseAllowance",
      "outputs": [
        {
          "internalType": "bool",
          "name": "success",
          "type": "bool"
        }
      ],
      "stateMutability": "nonpayable",
      "type": "function"
    },
    {
      "inputs": [
        {
          "internalType": "address",
          "name": "_spender",
          "type": "address"
        },
        {
          "internalType": "uint256",
          "name": "_addedValue",
          "type": "uint256"
        }
      ],
      "name": "increaseAllowance",
      "outputs": [
        {
          "internalType": "bool",
          "name": "success",
          "type": "bool"
        }
      ],
      "stateMutability": "nonpayable",
      "type": "function"
    },
    {
      "inputs": [
        {
          "internalType": "address",
          "name": "_to",
          "type": "address"
        },
        {
          "internalType": "uint256",
          "name": "_amount",
          "type": "uint256"
        }
      ],
      "name": "mint",
      "outputs": [
        {
          "internalType": "bool",
          "name": "success",
          "type": "bool"
        }
      ],
      "stateMutability": "nonpayable",
      "type": "function"
    },
    {
      "inputs": [],
      "name": "name",
      "outputs": [
        {
          "internalType": "string",
          "name": "",
          "type": "string"
        }
      ],
      "stateMutability": "view",
      "type": "function"
    },
    {
      "inputs": [],
      "name": "owner",
      "outputs": [
        {
          "internalType": "address",
          "name": "",
          "type": "address"
        }
      ],
      "stateMutability": "view",
      "type": "function"
    },
    {
      "inputs": [],
      "name": "symbol",
      "outputs": [
        {
          "internalType": "string",
          "name": "",
          "type": "string"
        }
      ],
      "stateMutability": "view",
      "type": "function"
    },
    {
      "inputs": [],
      "name": "totalSupply",
      "outputs": [
        {
          "internalType": "uint256",
          "name": "",
          "type": "uint256"
        }
      ],
      "stateMutability": "view",
      "type": "function"
    },
    {
      "inputs": [
        {
          "internalType": "address",
          "name": "_to",
          "type": "address"
        },
        {
          "internalType": "uint256",
          "name": "_value",
          "type": "uint256"
        }
      ],
      "name": "transfer",
      "outputs": [
        {
          "internalType": "bool",
          "name": "success",
          "type": "bool"
        }
      ],
      "stateMutability": "nonpayable",
      "type": "function"
    },
    {
      "inputs": [
        {
          "internalType": "address",
          "name": "_from",
          "type": "address"
        },
        {
          "internalType": "address",
          "name": "_to",
          "type": "address"
        },
        {
          "internalType": "uint256",
          "name": "_value",
          "type": "uint256"
        }
      ],
      "name": "transferFrom",
      "outputs": [
        {
          "internalType": "bool",
          "name": "success",
          "type": "bool"
        }
      ],
      "stateMutability": "nonpayable",
      "type": "function"
    },
    {
      "inputs": [
        {
          "internalType": "address",
          "name": "_newOwner",
          "type": "address"
        }
      ],
      "name": "transferOwnership",
      "outputs": [],
      "stateMutability": "nonpayable",
      "type": "function"
    }
  ],
  "bytecode": "0x608060405234801561001057600080fd5b5060405161299b38038061299b83398181016040528101906100329190610379565b8360009081610041919061062f565b508260019081610051919061062f565b5081600260006101000a81548160ff021916908360ff16021790555033600460006101000a81548173ffffffffffffffffffffffffffffffffffffffff021916908373ffffffffffffffffffffffffffffffffffffffff160217905550600260009054906101000a900460ff1660ff16600a6100cd9190610863565b816100d891906108ae565b600381905550600354600560003373ffffffffffffffffffffffffffffffffffffffff1673ffffffffffffffffffffffffffffffffffffffff168152602001908152602001600020819055503373ffffffffffffffffffffffffffffffffffffffff16600073ffffffffffffffffffffffffffffffffffffffff167fddf252ad1be2c89b69c2b068fc378daa952ba7f163c4a11628f55a4df523b3ef60035460405161018491906108ff565b60405180910390a35050505061091a565b6000604051905090565b600080fd5b600080fd5b600080fd5b600080fd5b6000601f19601f8301169050919050565b7f4e487b7100000000000000000000000000000000000000000000000000000000600052604160045260246000fd5b6101fc826101b3565b810181811067ffffffffffffffff8211171561021b5761021a6101c4565b5b80604052505050565b600061022e610195565b905061023a82826101f3565b919050565b600067ffffffffffffffff82111561025a576102596101c4565b5b610263826101b3565b9050602081019050919050565b60005b8381101561028e578082015181840152602081019050610273565b60008484015250505050565b60006102ad6102a88461023f565b610224565b9050828152602081018484840111156102c9576102c86101ae565b5b6102d4848285610270565b509392505050565b600082601f8301126102f1576102f06101a9565b5b815161030184826020860161029a565b91505092915050565b600060ff82169050919050565b6103208161030a565b811461032b57600080fd5b50565b60008151905061033d81610317565b92915050565b6000819050919050565b61035681610343565b811461036157600080fd5b50565b6000815190506103738161034d565b92915050565b600080600080608085870312156103935761039261019f565b5b600085015167ffffffffffffffff8111156103b1576103b06101a4565b5b6103bd878288016102dc565b945050602085015167ffffffffffffffff8111156103de576103dd6101a4565b5b6103ea878288016102dc565b93505060406103fb8782880161032e565b925050606061040c87828801610364565b91505092959194509250565b600081519050919050565b7f4e487b7100000000000000000000000000000000000000000000000000000000600052602260045260246000fd5b6000600282049050600182168061046a57607f821691505b60208210810361047d5761047c610423565b5b50919050565b60008190508160005260206000209050919050565b60006020601f8301049050919050565b600082821b905092915050565b6000600883026104e57fffffffffffffffffffffffffffffffffffffffffffffffffffffffffffffffff826104a8565b6104ef86836104a8565b95508019841693508086168417925050509392505050565b6000819050919050565b600061052c61052761052284610343565b610507565b610343565b9050919050565b6000819050919050565b61054683610511565b61055a61055282610533565b8484546104b5565b825550505050565b600090565b61056f610562565b61057a81848461053d565b505050565b5b8181101561059e57610593600082610567565b600181019050610580565b5050565b601f8211156105e3576105b481610483565b6105bd84610498565b810160208510156105cc578190505b6105e06105d885610498565b83018261057f565b50505b505050565b600082821c905092915050565b6000610606600019846008026105e8565b1980831691505092915050565b600061061f83836105f5565b9150826002028217905092915050565b61063882610418565b67ffffffffffffffff811115610651576106506101c4565b5b61065b8254610452565b6106668282856105a2565b600060209050601f8311600181146106995760008415610687578287015190505b6106918582610613565b8655506106f9565b601f1984166106a786610483565b60005b828110156106cf578489015182556001820191506020850194506020810190506106aa565b868310156106ec57848901516106e8601f8916826105f5565b8355505b6001600288020188555050505b505050505050565b7f4e487b7100000000000000000000000000000000000000000000000000000000600052601160045260246000fd5b60008160011c9050919050565b6000808291508390505b60018511156107875780860481111561076357610762610701565b5b60018516156107725780820291505b808102905061078085610730565b9450610747565b94509492505050565b6000826107a0576001905061085c565b816107ae576000905061085c565b81600181146107c457600281146107ce576107fd565b600191505061085c565b60ff8411156107e0576107df610701565b5b8360020a9150848211156107f7576107f6610701565b5b5061085c565b5060208310610133831016604e8410600b84101617156108325782820a90508381111561082d5761082c610701565b5b61085c565b61083f848484600161073d565b9250905081840481111561085657610855610701565b5b81810290505b9392505050565b600061086e82610343565b915061087983610343565b92506108a67fffffffffffffffffffffffffffffffffffffffffffffffffffffffffffffffff8484610790565b905092915050565b60006108b982610343565b91506108c483610343565b92508282026108d281610343565b915082820484148315176108e9576108e8610701565b5b5092915050565b6108f981610343565b82525050565b600060208201905061091460008301846108f0565b92915050565b612072806109296000396000f3fe608060405234801561001057600080fd5b50600436106100f55760003560e01c806370a0823111610097578063a457c2d711610066578063a457c2d7146102b0578063a9059cbb146102e0578063dd62ed3e14610310578063f2fde38b14610340576100f5565b806370a08231146102145780638da5cb5b1461024457806395d89b41146102625780639dc29fac14610280576100f5565b806323b872dd116100d357806323b872dd14610166578063313ce5671461019657806339509351146101b457806340c10f19146101e4576100f5565b806306fdde03146100fa578063095ea7b31461011857806318160ddd14610148575b600080fd5b61010261035c565b60405161010f9190611741565b60405180910390f35b610132600480360381019061012d91906117fc565b6103ea565b60405161013f9190611857565b60405180910390f35b61015061054a565b60405161015d9190611881565b60405180910390f35b610180600480360381019061017b919061189c565b610550565b60405161018d9190611857565b60405180910390f35b61019e61091f565b6040516101ab919061190b565b60405180910390f35b6101ce60048036038101906101c991906117fc565b610932565b6040516101db9190611857565b60405180910390f35b6101fe60048036038101906101f991906117fc565b610b20565b60405161020b9190611857565b60405180910390f35b61022e60048036038101906102299190611926565b610d4e565b60405161023b9190611881565b60405180910390f35b61024c610d66565b6040516102599190611962565b60405180910390f35b61026a610d8c565b6040516102779190611741565b60405180910390f35b61029a600480360381019061029591906117fc565b610e1a565b6040516102a79190611857565b60405180910390f35b6102ca60048036038101906102c591906117fc565b61108f565b6040516102d79190611857565b60405180910390f35b6102fa60048036038101906102f591906117fc565b61133c565b6040516103079190611857565b60405180910390f35b61032a6004803603810190610325919061197d565b611549565b6040516103379190611881565b60405180910390f35b61035a60048036038101906103559190611926565b61156e565b005b60008054610369906119ec565b80601f0160208091040260200160405190810160405280929190818152602001828054610395906119ec565b80156103e25780601f106103b7576101008083540402835291602001916103e2565b820191906000526020600020905b8154815290600101906020018083116103c557829003601f168201915b505050505081565b60008073ffffffffffffffffffffffffffffffffffffffff168373ffffffffffffffffffffffffffffffffffffffff160361045a576040517f08c379a000000000000000000000000000000000000000000000000000000000815260040161045190611a8f565b60405180910390fd5b81600660003373ffffffffffffffffffffffffffffffffffffffff1673ffffffffffffffffffffffffffffffffffffffff16815260200190815260200160002060008573ffffffffffffffffffffffffffffffffffffffff1673ffffffffffffffffffffffffffffffffffffffff168152602001908152602001600020819055508273ffffffffffffffffffffffffffffffffffffffff163373ffffffffffffffffffffffffffffffffffffffff167f8c5be1e5ebec7d5bd14f71427d1e84f3dd0314c0f7b2291e5b200ac8c7c3b925846040516105389190611881565b60405180910390a36001905092915050565b60035481565b60008073ffffffffffffffffffffffffffffffffffffffff168473ffffffffffffffffffffffffffffffffffffffff16036105c0576040517f08c379a00000000000000000000000000000000000000000000000000000000081526004016105b790611b21565b60405180910390fd5b600073ffffffffffffffffffffffffffffffffffffffff168373ffffffffffffffffffffffffffffffffffffffff160361062f576040517f08c379a000000000000000000000000000000000000000000000000000000000815260040161062690611bb3565b60405180910390fd5b81600560008673ffffffffffffffffffffffffffffffffffffffff1673ffffffffffffffffffffffffffffffffffffffff1681526020019081526020016000205410156106b1576040517f08c379a00000000000000000000000000000000000000000000000000000000081526004016106a890611c1f565b60405180910390fd5b81600660008673ffffffffffffffffffffffffffffffffffffffff1673ffffffffffffffffffffffffffffffffffffffff16815260200190815260200160002060003373ffffffffffffffffffffffffffffffffffffffff1673ffffffffffffffffffffffffffffffffffffffff168152602001908152602001600020541015610770576040517f08c379a000000000000000000000000000000000000000000000000000000000815260040161076790611c8b565b60405180910390fd5b81600560008673ffffffffffffffffffffffffffffffffffffffff1673ffffffffffffffffffffffffffffffffffffffff16815260200190815260200160002060008282546107bf9190611cda565b9250508190555081600560008573ffffffffffffffffffffffffffffffffffffffff1673ffffffffffffffffffffffffffffffffffffffff16815260200190815260200160002060008282546108159190611d0e565b9250508190555081600660008673ffffffffffffffffffffffffffffffffffffffff1673ffffffffffffffffffffffffffffffffffffffff16815260200190815260200160002060003373ffffffffffffffffffffffffffffffffffffffff1673ffffffffffffffffffffffffffffffffffffffff16815260200190815260200160002060008282546108a89190611cda565b925050819055508273ffffffffffffffffffffffffffffffffffffffff168473ffffffffffffffffffffffffffffffffffffffff167fddf252ad1be2c89b69c2b068fc378daa952ba7f163c4a11628f55a4df523b3ef8460405161090c9190611881565b60405180910390a3600190509392505050565b600260009054906101000a900460ff1681565b60008073ffffffffffffffffffffffffffffffffffffffff168373ffffffffffffffffffffffffffffffffffffffff16036109a2576040517f08c379a000000000000000000000000000000000000000000000000000000000815260040161099990611a8f565b60405180910390fd5b81600660003373ffffffffffffffffffffffffffffffffffffffff1673ffffffffffffffffffffffffffffffffffffffff16815260200190815260200160002060008573ffffffffffffffffffffffffffffffffffffffff1673ffffffffffffffffffffffffffffffffffffffff1681526020019081526020016000206000828254610a2e9190611d0e565b925050819055508273ffffffffffffffffffffffffffffffffffffffff163373ffffffffffffffffffffffffffffffffffffffff167f8c5be1e5ebec7d5bd14f71427d1e84f3dd0314c0f7b2291e5b200ac8c7c3b925600660003373ffffffffffffffffffffffffffffffffffffffff1673ffffffffffffffffffffffffffffffffffffffff16815260200190815260200160002060008773ffffffffffffffffffffffffffffffffffffffff1673ffffffffffffffffffffffffffffffffffffffff16815260200190815260200160002054604051610b0e9190611881565b60405180910390a36001905092915050565b6000600460009054906101000a900473ffffffffffffffffffffffffffffffffffffffff1673ffffffffffffffffffffffffffffffffffffffff163373ffffffffffffffffffffffffffffffffffffffff1614610bb2576040517f08c379a0000000000000000000000000000000000000000000000000000000008152600401610ba990611db4565b60405180910390fd5b600073ffffffffffffffffffffffffffffffffffffffff168373ffffffffffffffffffffffffffffffffffffffff1603610c21576040517f08c379a0000000000000000000000000000000000000000000000000000000008152600401610c1890611e46565b60405180910390fd5b8160036000828254610c339190611d0e565b9250508190555081600560008573ffffffffffffffffffffffffffffffffffffffff1673ffffffffffffffffffffffffffffffffffffffff1681526020019081526020016000206000828254610c899190611d0e565b925050819055508273ffffffffffffffffffffffffffffffffffffffff16600073ffffffffffffffffffffffffffffffffffffffff167fddf252ad1be2c89b69c2b068fc378daa952ba7f163c4a11628f55a4df523b3ef84604051610cee9190611881565b60405180910390a38273ffffffffffffffffffffffffffffffffffffffff167f0f6798a560793a54c3bcfe86a93cde1e73087d944c0ea20544137d412139688583604051610d3c9190611881565b60405180910390a26001905092915050565b60056020528060005260406000206000915090505481565b600460009054906101000a900473ffffffffffffffffffffffffffffffffffffffff1681565b60018054610d99906119ec565b80601f0160208091040260200160405190810160405280929190818152602001828054610dc5906119ec565b8015610e125780601f10610de757610100808354040283529160200191610e12565b820191906000526020600020905b815481529060010190602001808311610df557829003601f168201915b505050505081565b60003373ffffffffffffffffffffffffffffffffffffffff168373ffffffffffffffffffffffffffffffffffffffff1614610ee057600460009054906101000a900473ffffffffffffffffffffffffffffffffffffffff1673ffffffffffffffffffffffffffffffffffffffff163373ffffffffffffffffffffffffffffffffffffffff1614610edf576040517f08c379a0000000000000000000000000000000000000000000000000000000008152600401610ed690611ed8565b60405180910390fd5b5b81600560008573ffffffffffffffffffffffffffffffffffffffff1673ffffffffffffffffffffffffffffffffffffffff168152602001908152602001600020541015610f62576040517f08c379a0000000000000000000000000000000000000000000000000000000008152600401610f5990611f44565b60405180910390fd5b81600560008573ffffffffffffffffffffffffffffffffffffffff1673ffffffffffffffffffffffffffffffffffffffff1681526020019081526020016000206000828254610fb19190611cda565b925050819055508160036000828254610fca9190611cda565b92505081905550600073ffffffffffffffffffffffffffffffffffffffff168373ffffffffffffffffffffffffffffffffffffffff167fddf252ad1be2c89b69c2b068fc378daa952ba7f163c4a11628f55a4df523b3ef8460405161102f9190611881565b60405180910390a38273ffffffffffffffffffffffffffffffffffffffff167fcc16f5dbb4873280815c1ee09dbd06736cffcc184412cf7a71a0fdb75d397ca58360405161107d9190611881565b60405180910390a26001905092915050565b60008073ffffffffffffffffffffffffffffffffffffffff168373ffffffffffffffffffffffffffffffffffffffff16036110ff576040517f08c379a00000000000000000000000000000000000000000000000000000000081526004016110f690611a8f565b60405180910390fd5b81600660003373ffffffffffffffffffffffffffffffffffffffff1673ffffffffffffffffffffffffffffffffffffffff16815260200190815260200160002060008573ffffffffffffffffffffffffffffffffffffffff1673ffffffffffffffffffffffffffffffffffffffff1681526020019081526020016000205410156111be576040517f08c379a00000000000000000000000000000000000000000000000000000000081526004016111b590611fb0565b60405180910390fd5b81600660003373ffffffffffffffffffffffffffffffffffffffff1673ffffffffffffffffffffffffffffffffffffffff16815260200190815260200160002060008573ffffffffffffffffffffffffffffffffffffffff1673ffffffffffffffffffffffffffffffffffffffff168152602001908152602001600020600082825461124a9190611cda565b925050819055508273ffffffffffffffffffffffffffffffffffffffff163373ffffffffffffffffffffffffffffffffffffffff167f8c5be1e5ebec7d5bd14f71427d1e84f3dd0314c0f7b2291e5b200ac8c7c3b925600660003373ffffffffffffffffffffffffffffffffffffffff1673ffffffffffffffffffffffffffffffffffffffff16815260200190815260200160002060008773ffffffffffffffffffffffffffffffffffffffff1673ffffffffffffffffffffffffffffffffffffffff1681526020019081526020016000205460405161132a9190611881565b60405180910390a36001905092915050565b60008073ffffffffffffffffffffffffffffffffffffffff168373ffffffffffffffffffffffffffffffffffffffff16036113ac576040517f08c379a00000000000000000000000000000000000000000000000000000000081526004016113a390611bb3565b60405180910390fd5b81600560003373ffffffffffffffffffffffffffffffffffffffff1673ffffffffffffffffffffffffffffffffffffffff16815260200190815260200160002054101561142e576040517f08c379a000000000000000000000000000000000000000000000000000000000815260040161142590611c1f565b60405180910390fd5b81600560003373ffffffffffffffffffffffffffffffffffffffff1673ffffffffffffffffffffffffffffffffffffffff168152602001908152602001600020600082825461147d9190611cda565b9250508190555081600560008573ffffffffffffffffffffffffffffffffffffffff1673ffffffffffffffffffffffffffffffffffffffff16815260200190815260200160002060008282546114d39190611d0e565b925050819055508273ffffffffffffffffffffffffffffffffffffffff163373ffffffffffffffffffffffffffffffffffffffff167fddf252ad1be2c89b69c2b068fc378daa952ba7f163c4a11628f55a4df523b3ef846040516115379190611881565b60405180910390a36001905092915050565b6006602052816000526040600020602052806000526040600020600091509150505481565b600460009054906101000a900473ffffffffffffffffffffffffffffffffffffffff1673ffffffffffffffffffffffffffffffffffffffff163373ffffffffffffffffffffffffffffffffffffffff16146115fe576040517f08c379a00000000000000000000000000000000000000000000000000000000081526004016115f590611db4565b60405180910390fd5b600073ffffffffffffffffffffffffffffffffffffffff168173ffffffffffffffffffffffffffffffffffffffff160361166d576040517f08c379a00000000000000000000000000000000000000000000000000000000081526004016116649061201c565b60405180910390fd5b80600460006101000a81548173ffffffffffffffffffffffffffffffffffffffff021916908373ffffffffffffffffffffffffffffffffffffffff16021790555050565b600081519050919050565b600082825260208201905092915050565b60005b838110156116eb5780820151818401526020810190506116d0565b60008484015250505050565b6000601f19601f8301169050919050565b6000611713826116b1565b61171d81856116bc565b935061172d8185602086016116cd565b611736816116f7565b840191505092915050565b6000602082019050818103600083015261175b8184611708565b905092915050565b600080fd5b600073ffffffffffffffffffffffffffffffffffffffff82169050919050565b600061179382611768565b9050919050565b6117a381611788565b81146117ae57600080fd5b50565b6000813590506117c08161179a565b92915050565b6000819050919050565b6117d9816117c6565b81146117e457600080fd5b50565b6000813590506117f6816117d0565b92915050565b6000806040838503121561181357611812611763565b5b6000611821858286016117b1565b9250506020611832858286016117e7565b9150509250929050565b60008115159050919050565b6118518161183c565b82525050565b600060208201905061186c6000830184611848565b92915050565b61187b816117c6565b82525050565b60006020820190506118966000830184611872565b92915050565b6000806000606084860312156118b5576118b4611763565b5b60006118c3868287016117b1565b93505060206118d4868287016117b1565b92505060406118e5868287016117e7565b9150509250925092565b600060ff82169050919050565b611905816118ef565b82525050565b600060208201905061192060008301846118fc565b92915050565b60006020828403121561193c5761193b611763565b5b600061194a848285016117b1565b91505092915050565b61195c81611788565b82525050565b60006020820190506119776000830184611953565b92915050565b6000806040838503121561199457611993611763565b5b60006119a2858286016117b1565b92505060206119b3858286016117b1565b9150509250929050565b7f4e487b7100000000000000000000000000000000000000000000000000000000600052602260045260246000fd5b60006002820490506001821680611a0457607f821691505b602082108103611a1757611a166119bd565b5b50919050565b7f417070726f76616c20746f207a65726f2061646472657373206973206e6f742060008201527f616c6c6f77656400000000000000000000000000000000000000000000000000602082015250565b6000611a796027836116bc565b9150611a8482611a1d565b604082019050919050565b60006020820190508181036000830152611aa881611a6c565b9050919050565b7f5472616e736665722066726f6d207a65726f2061646472657373206973206e6f60008201527f7420616c6c6f7765640000000000000000000000000000000000000000000000602082015250565b6000611b0b6029836116bc565b9150611b1682611aaf565b604082019050919050565b60006020820190508181036000830152611b3a81611afe565b9050919050565b7f5472616e7366657220746f207a65726f2061646472657373206973206e6f742060008201527f616c6c6f77656400000000000000000000000000000000000000000000000000602082015250565b6000611b9d6027836116bc565b9150611ba882611b41565b604082019050919050565b60006020820190508181036000830152611bcc81611b90565b9050919050565b7f496e73756666696369656e742062616c616e6365000000000000000000000000600082015250565b6000611c096014836116bc565b9150611c1482611bd3565b602082019050919050565b60006020820190508181036000830152611c3881611bfc565b9050919050565b7f496e73756666696369656e7420616c6c6f77616e636500000000000000000000600082015250565b6000611c756016836116bc565b9150611c8082611c3f565b602082019050919050565b60006020820190508181036000830152611ca481611c68565b9050919050565b7f4e487b7100000000000000000000000000000000000000000000000000000000600052601160045260246000fd5b6000611ce5826117c6565b9150611cf0836117c6565b9250828203905081811115611d0857611d07611cab565b5b92915050565b6000611d19826117c6565b9150611d24836117c6565b9250828201905080821115611d3c57611d3b611cab565b5b92915050565b7f4f6e6c79206f776e65722063616e2063616c6c20746869732066756e6374696f60008201527f6e00000000000000000000000000000000000000000000000000000000000000602082015250565b6000611d9e6021836116bc565b9150611da982611d42565b604082019050919050565b60006020820190508181036000830152611dcd81611d91565b9050919050565b7f4d696e7420746f207a65726f2061646472657373206973206e6f7420616c6c6f60008201527f7765640000000000000000000000000000000000000000000000000000000000602082015250565b6000611e306023836116bc565b9150611e3b82611dd4565b604082019050919050565b60006020820190508181036000830152611e5f81611e23565b9050919050565b7f4f6e6c79206f776e65722063616e206275726e206f74686572732720746f6b6560008201527f6e73000000000000000000000000000000000000000000000000000000000000602082015250565b6000611ec26022836116bc565b9150611ecd82611e66565b604082019050919050565b60006020820190508181036000830152611ef181611eb5565b9050919050565b7f4275726e20616d6f756e7420657863656564732062616c616e63650000000000600082015250565b6000611f2e601b836116bc565b9150611f3982611ef8565b602082019050919050565b60006020820190508181036000830152611f5d81611f21565b9050919050565b7f44656372656173656420616c6c6f77616e63652062656c6f77207a65726f0000600082015250565b6000611f9a601e836116bc565b9150611fa582611f64565b602082019050919050565b60006020820190508181036000830152611fc981611f8d565b9050919050565b7f4e6577206f776e65722063616e6e6f74206265207a65726f2061646472657373600082015250565b60006120066020836116bc565b915061201182611fd0565b602082019050919050565b6000602082019050818103600083015261203581611ff9565b905091905056fea2646970667358221220e24bd807b2514e50531f9ea9f6e502768425f2c9df4c67be37811e84458ac45a64736f6c634300081c0033",
  "linkReferences": {},
  "deployedLinkReferences": {}
}